{
  "_format": "hh-sol-artifact-1",
  "contractName": "Crowdfunding",
  "sourceName": "contracts/Crowdfunding.sol",
  "abi": [
    {
      "inputs": [
        {
          "internalType": "string",
          "name": "title",
          "type": "string"
        },
        {
          "internalType": "uint256",
          "name": "duration",
          "type": "uint256"
        },
        {
          "internalType": "uint256",
          "name": "goal",
          "type": "uint256"
        },
        {
          "internalType": "uint256",
          "name": "min",
          "type": "uint256"
        },
        {
          "internalType": "string",
          "name": "descript",
          "type": "string"
        }
      ],
      "stateMutability": "nonpayable",
      "type": "constructor"
    },
    {
      "inputs": [],
      "name": "campaignTitle",
      "outputs": [
        {
          "internalType": "string",
          "name": "",
          "type": "string"
        }
      ],
      "stateMutability": "view",
      "type": "function"
    },
    {
      "inputs": [],
      "name": "closeCampaign",
      "outputs": [],
      "stateMutability": "nonpayable",
      "type": "function"
    },
    {
      "inputs": [
        {
          "internalType": "address",
          "name": "",
          "type": "address"
        }
      ],
      "name": "contributions",
      "outputs": [
        {
          "internalType": "uint256",
          "name": "",
          "type": "uint256"
        }
      ],
      "stateMutability": "view",
      "type": "function"
    },
    {
      "inputs": [],
      "name": "description",
      "outputs": [
        {
          "internalType": "string",
          "name": "",
          "type": "string"
        }
      ],
      "stateMutability": "view",
      "type": "function"
    },
    {
      "inputs": [],
      "name": "endTime",
      "outputs": [
        {
          "internalType": "uint256",
          "name": "",
          "type": "uint256"
        }
      ],
      "stateMutability": "view",
      "type": "function"
    },
    {
      "inputs": [
        {
          "internalType": "address",
          "name": "contributor",
          "type": "address"
        }
      ],
      "name": "getContribution",
      "outputs": [
        {
          "internalType": "uint256",
          "name": "",
          "type": "uint256"
        }
      ],
      "stateMutability": "view",
      "type": "function"
    },
    {
      "inputs": [],
      "name": "getContributors",
      "outputs": [
        {
          "internalType": "address[]",
          "name": "",
          "type": "address[]"
        }
      ],
      "stateMutability": "view",
      "type": "function"
    },
    {
      "inputs": [],
      "name": "getPercentageRaised",
      "outputs": [
        {
          "internalType": "uint256",
          "name": "",
          "type": "uint256"
        }
      ],
      "stateMutability": "view",
      "type": "function"
    },
    {
      "inputs": [],
      "name": "getRemainingTime",
      "outputs": [
        {
          "internalType": "uint256",
          "name": "",
          "type": "uint256"
        }
      ],
      "stateMutability": "view",
      "type": "function"
    },
    {
      "inputs": [],
      "name": "getTotalContributors",
      "outputs": [
        {
          "internalType": "uint256",
          "name": "",
          "type": "uint256"
        }
      ],
      "stateMutability": "view",
      "type": "function"
    },
    {
      "inputs": [],
      "name": "goalAmount",
      "outputs": [
        {
          "internalType": "uint256",
          "name": "",
          "type": "uint256"
        }
      ],
      "stateMutability": "view",
      "type": "function"
    },
    {
      "inputs": [],
      "name": "isCampaignSuccessful",
      "outputs": [
        {
          "internalType": "bool",
          "name": "",
          "type": "bool"
        }
      ],
      "stateMutability": "view",
      "type": "function"
    },
    {
      "inputs": [
        {
          "internalType": "address",
          "name": "contributor",
          "type": "address"
        }
      ],
      "name": "isContributor",
      "outputs": [
        {
          "internalType": "bool",
          "name": "",
          "type": "bool"
        }
      ],
      "stateMutability": "view",
      "type": "function"
    },
    {
      "inputs": [],
      "name": "minimum",
      "outputs": [
        {
          "internalType": "uint256",
          "name": "",
          "type": "uint256"
        }
      ],
      "stateMutability": "view",
      "type": "function"
    },
    {
      "inputs": [],
      "name": "owner",
      "outputs": [
        {
          "internalType": "address payable",
          "name": "",
          "type": "address"
        }
      ],
      "stateMutability": "view",
      "type": "function"
    },
    {
      "inputs": [],
      "name": "refund",
      "outputs": [],
      "stateMutability": "nonpayable",
      "type": "function"
    },
    {
      "inputs": [],
      "name": "totalRaised",
      "outputs": [
        {
          "internalType": "uint256",
          "name": "",
          "type": "uint256"
        }
      ],
      "stateMutability": "view",
      "type": "function"
    },
    {
      "inputs": [
        {
          "internalType": "string",
          "name": "newTitle",
          "type": "string"
        }
      ],
      "name": "updateCampaignTitle",
      "outputs": [],
      "stateMutability": "nonpayable",
      "type": "function"
    },
    {
      "inputs": [],
      "name": "updateContribution",
      "outputs": [],
      "stateMutability": "payable",
      "type": "function"
    },
    {
      "inputs": [
        {
          "internalType": "uint256",
          "name": "newEndTime",
          "type": "uint256"
        }
      ],
      "name": "updateEndTime",
      "outputs": [],
      "stateMutability": "nonpayable",
      "type": "function"
    },
    {
      "inputs": [
        {
          "internalType": "uint256",
          "name": "newGoalAmount",
          "type": "uint256"
        }
      ],
      "name": "updateGoalAmount",
      "outputs": [],
      "stateMutability": "nonpayable",
      "type": "function"
    },
    {
      "inputs": [],
      "name": "withdraw",
      "outputs": [],
      "stateMutability": "nonpayable",
      "type": "function"
    },
    {
      "stateMutability": "payable",
      "type": "receive"
    }
  ],
  "bytecode": "0x60806040523480156200001157600080fd5b50604051620026023803806200260283398181016040528101906200003791906200029e565b336000806101000a81548173ffffffffffffffffffffffffffffffffffffffff021916908373ffffffffffffffffffffffffffffffffffffffff1602179055508460019081620000889190620005a5565b5080600290816200009a9190620005a5565b50816004819055508342620000b09190620006bb565b6003819055508260058190555060006006819055505050505050620006f6565b6000604051905090565b600080fd5b600080fd5b600080fd5b600080fd5b6000601f19601f8301169050919050565b7f4e487b7100000000000000000000000000000000000000000000000000000000600052604160045260246000fd5b6200013982620000ee565b810181811067ffffffffffffffff821117156200015b576200015a620000ff565b5b80604052505050565b600062000170620000d0565b90506200017e82826200012e565b919050565b600067ffffffffffffffff821115620001a157620001a0620000ff565b5b620001ac82620000ee565b9050602081019050919050565b60005b83811015620001d9578082015181840152602081019050620001bc565b60008484015250505050565b6000620001fc620001f68462000183565b62000164565b9050828152602081018484840111156200021b576200021a620000e9565b5b62000228848285620001b9565b509392505050565b600082601f830112620002485762000247620000e4565b5b81516200025a848260208601620001e5565b91505092915050565b6000819050919050565b620002788162000263565b81146200028457600080fd5b50565b60008151905062000298816200026d565b92915050565b600080600080600060a08688031215620002bd57620002bc620000da565b5b600086015167ffffffffffffffff811115620002de57620002dd620000df565b5b620002ec8882890162000230565b9550506020620002ff8882890162000287565b9450506040620003128882890162000287565b9350506060620003258882890162000287565b925050608086015167ffffffffffffffff811115620003495762000348620000df565b5b620003578882890162000230565b9150509295509295909350565b600081519050919050565b7f4e487b7100000000000000000000000000000000000000000000000000000000600052602260045260246000fd5b60006002820490506001821680620003b757607f821691505b602082108103620003cd57620003cc6200036f565b5b50919050565b60008190508160005260206000209050919050565b60006020601f8301049050919050565b600082821b905092915050565b600060088302620004377fffffffffffffffffffffffffffffffffffffffffffffffffffffffffffffffff82620003f8565b620004438683620003f8565b95508019841693508086168417925050509392505050565b6000819050919050565b600062000486620004806200047a8462000263565b6200045b565b62000263565b9050919050565b6000819050919050565b620004a28362000465565b620004ba620004b1826200048d565b84845462000405565b825550505050565b600090565b620004d1620004c2565b620004de81848462000497565b505050565b5b818110156200050657620004fa600082620004c7565b600181019050620004e4565b5050565b601f82111562000555576200051f81620003d3565b6200052a84620003e8565b810160208510156200053a578190505b620005526200054985620003e8565b830182620004e3565b50505b505050565b600082821c905092915050565b60006200057a600019846008026200055a565b1980831691505092915050565b600062000595838362000567565b9150826002028217905092915050565b620005b08262000364565b67ffffffffffffffff811115620005cc57620005cb620000ff565b5b620005d882546200039e565b620005e58282856200050a565b600060209050601f8311600181146200061d576000841562000608578287015190505b62000614858262000587565b86555062000684565b601f1984166200062d86620003d3565b60005b82811015620006575784890151825560018201915060208501945060208101905062000630565b8683101562000677578489015162000673601f89168262000567565b8355505b6001600288020188555050505b505050505050565b7f4e487b7100000000000000000000000000000000000000000000000000000000600052601160045260246000fd5b6000620006c88262000263565b9150620006d58362000263565b9250828201905080821115620006f057620006ef6200068c565b5b92915050565b611efc80620007066000396000f3fe6080604052600436106101395760003560e01c80636ab3846b116100ab578063c5c4744c1161006f578063c5c4744c1461053b578063caa5262d14610566578063d7557f1814610591578063dc58a56c146105a8578063ead1b1bf146105d3578063efb98bcf146105fc5761029d565b80636ab3846b146104665780637284e4161461048f578063835a6172146104ba5780638da5cb5b146104e5578063af157c19146105105761029d565b80633ccfd60b116100fd5780633ccfd60b1461037c57806342e94c901461039357806352d6804d146103d05780635382ab6b146103fb578063590e1ae3146104245780635d491abb1461043b5761029d565b80631d0d35f5146102a257806321eff7fc146102df5780632458f8c61461031c5780632636b945146103265780633197cbb6146103515761029d565b3661029d576003544210610182576040517f08c379a0000000000000000000000000000000000000000000000000000000008152600401610179906110b6565b60405180910390fd5b6000600760003373ffffffffffffffffffffffffffffffffffffffff1673ffffffffffffffffffffffffffffffffffffffff168152602001908152602001600020540361022d576008339080600181540180825580915050600190039060005260206000200160009091909190916101000a81548173ffffffffffffffffffffffffffffffffffffffff021916908373ffffffffffffffffffffffffffffffffffffffff1602179055505b34600760003373ffffffffffffffffffffffffffffffffffffffff1673ffffffffffffffffffffffffffffffffffffffff168152602001908152602001600020600082825461027c919061110f565b925050819055503460066000828254610295919061110f565b925050819055005b600080fd5b3480156102ae57600080fd5b506102c960048036038101906102c491906111b5565b610627565b6040516102d691906111fd565b60405180910390f35b3480156102eb57600080fd5b50610306600480360381019061030191906111b5565b610672565b6040516103139190611227565b60405180910390f35b6103246106bb565b005b34801561033257600080fd5b5061033b610825565b6040516103489190611227565b60405180910390f35b34801561035d57600080fd5b5061036661082b565b6040516103739190611227565b60405180910390f35b34801561038857600080fd5b50610391610831565b005b34801561039f57600080fd5b506103ba60048036038101906103b591906111b5565b61096f565b6040516103c79190611227565b60405180910390f35b3480156103dc57600080fd5b506103e5610987565b6040516103f29190611227565b60405180910390f35b34801561040757600080fd5b50610422600480360381019061041d9190611388565b61098d565b005b34801561043057600080fd5b50610439610a2e565b005b34801561044757600080fd5b50610450610b8b565b60405161045d91906111fd565b60405180910390f35b34801561047257600080fd5b5061048d600480360381019061048891906113fd565b610b9a565b005b34801561049b57600080fd5b506104a4610c74565b6040516104b19190611498565b60405180910390f35b3480156104c657600080fd5b506104cf610d02565b6040516104dc9190611498565b60405180910390f35b3480156104f157600080fd5b506104fa610d90565b60405161050791906114db565b60405180910390f35b34801561051c57600080fd5b50610525610db4565b60405161053291906115b4565b60405180910390f35b34801561054757600080fd5b50610550610e42565b60405161055d9190611227565b60405180910390f35b34801561057257600080fd5b5061057b610e48565b6040516105889190611227565b60405180910390f35b34801561059d57600080fd5b506105a6610e6b565b005b3480156105b457600080fd5b506105bd610f49565b6040516105ca9190611227565b60405180910390f35b3480156105df57600080fd5b506105fa60048036038101906105f591906113fd565b610f56565b005b34801561060857600080fd5b50610611611031565b60405161061e9190611227565b60405180910390f35b600080600760008473ffffffffffffffffffffffffffffffffffffffff1673ffffffffffffffffffffffffffffffffffffffff16815260200190815260200160002054119050919050565b6000600760008373ffffffffffffffffffffffffffffffffffffffff1673ffffffffffffffffffffffffffffffffffffffff168152602001908152602001600020549050919050565b60035442106106ff576040517f08c379a00000000000000000000000000000000000000000000000000000000081526004016106f6906110b6565b60405180910390fd5b6000600760003373ffffffffffffffffffffffffffffffffffffffff1673ffffffffffffffffffffffffffffffffffffffff1681526020019081526020016000205411610781576040517f08c379a000000000000000000000000000000000000000000000000000000000815260040161077890611622565b60405180910390fd5b34600760003373ffffffffffffffffffffffffffffffffffffffff1673ffffffffffffffffffffffffffffffffffffffff168152602001908152602001600020546006546107cf9190611642565b6107d9919061110f565b60068190555034600760003373ffffffffffffffffffffffffffffffffffffffff1673ffffffffffffffffffffffffffffffffffffffff16815260200190815260200160002081905550565b60055481565b60035481565b60008054906101000a900473ffffffffffffffffffffffffffffffffffffffff1673ffffffffffffffffffffffffffffffffffffffff163373ffffffffffffffffffffffffffffffffffffffff16146108bf576040517f08c379a00000000000000000000000000000000000000000000000000000000081526004016108b6906116c2565b60405180910390fd5b6005546006541015610906576040517f08c379a00000000000000000000000000000000000000000000000000000000081526004016108fd9061172e565b60405180910390fd5b60008054906101000a900473ffffffffffffffffffffffffffffffffffffffff1673ffffffffffffffffffffffffffffffffffffffff166108fc479081150290604051600060405180830381858888f1935050505015801561096c573d6000803e3d6000fd5b50565b60076020528060005260406000206000915090505481565b60045481565b60008054906101000a900473ffffffffffffffffffffffffffffffffffffffff1673ffffffffffffffffffffffffffffffffffffffff163373ffffffffffffffffffffffffffffffffffffffff1614610a1b576040517f08c379a0000000000000000000000000000000000000000000000000000000008152600401610a12906117c0565b60405180910390fd5b8060019081610a2a91906119ec565b5050565b6003544211610a72576040517f08c379a0000000000000000000000000000000000000000000000000000000008152600401610a6990611b0a565b60405180910390fd5b60055460065410610ab8576040517f08c379a0000000000000000000000000000000000000000000000000000000008152600401610aaf90611b76565b60405180910390fd5b6000600760003373ffffffffffffffffffffffffffffffffffffffff1673ffffffffffffffffffffffffffffffffffffffff1681526020019081526020016000205490506000600760003373ffffffffffffffffffffffffffffffffffffffff1673ffffffffffffffffffffffffffffffffffffffff168152602001908152602001600020819055503373ffffffffffffffffffffffffffffffffffffffff166108fc829081150290604051600060405180830381858888f19350505050158015610b87573d6000803e3d6000fd5b5050565b60006005546006541015905090565b60008054906101000a900473ffffffffffffffffffffffffffffffffffffffff1673ffffffffffffffffffffffffffffffffffffffff163373ffffffffffffffffffffffffffffffffffffffff1614610c28576040517f08c379a0000000000000000000000000000000000000000000000000000000008152600401610c1f90611c08565b60405180910390fd5b428111610c6a576040517f08c379a0000000000000000000000000000000000000000000000000000000008152600401610c6190611c74565b60405180910390fd5b8060038190555050565b60028054610c819061180f565b80601f0160208091040260200160405190810160405280929190818152602001828054610cad9061180f565b8015610cfa5780601f10610ccf57610100808354040283529160200191610cfa565b820191906000526020600020905b815481529060010190602001808311610cdd57829003601f168201915b505050505081565b60018054610d0f9061180f565b80601f0160208091040260200160405190810160405280929190818152602001828054610d3b9061180f565b8015610d885780601f10610d5d57610100808354040283529160200191610d88565b820191906000526020600020905b815481529060010190602001808311610d6b57829003601f168201915b505050505081565b60008054906101000a900473ffffffffffffffffffffffffffffffffffffffff1681565b60606008805480602002602001604051908101604052809291908181526020018280548015610e3857602002820191906000526020600020905b8160009054906101000a900473ffffffffffffffffffffffffffffffffffffffff1673ffffffffffffffffffffffffffffffffffffffff1681526020019060010190808311610dee575b5050505050905090565b60065481565b60006005546064600654610e5c9190611c94565b610e669190611d05565b905090565b60008054906101000a900473ffffffffffffffffffffffffffffffffffffffff1673ffffffffffffffffffffffffffffffffffffffff163373ffffffffffffffffffffffffffffffffffffffff1614610ef9576040517f08c379a0000000000000000000000000000000000000000000000000000000008152600401610ef090611d82565b60405180910390fd5b6005546006541015610f40576040517f08c379a0000000000000000000000000000000000000000000000000000000008152600401610f379061172e565b60405180910390fd5b42600381905550565b6000600880549050905090565b60008054906101000a900473ffffffffffffffffffffffffffffffffffffffff1673ffffffffffffffffffffffffffffffffffffffff163373ffffffffffffffffffffffffffffffffffffffff1614610fe4576040517f08c379a0000000000000000000000000000000000000000000000000000000008152600401610fdb90611e14565b60405180910390fd5b60008111611027576040517f08c379a000000000000000000000000000000000000000000000000000000000815260040161101e90611ea6565b60405180910390fd5b8060058190555050565b600060035442106110455760009050611056565b426003546110539190611642565b90505b90565b600082825260208201905092915050565b7f43726f776466756e64696e6720697320636c6f7365642e000000000000000000600082015250565b60006110a0601783611059565b91506110ab8261106a565b602082019050919050565b600060208201905081810360008301526110cf81611093565b9050919050565b6000819050919050565b7f4e487b7100000000000000000000000000000000000000000000000000000000600052601160045260246000fd5b600061111a826110d6565b9150611125836110d6565b925082820190508082111561113d5761113c6110e0565b5b92915050565b6000604051905090565b600080fd5b600080fd5b600073ffffffffffffffffffffffffffffffffffffffff82169050919050565b600061118282611157565b9050919050565b61119281611177565b811461119d57600080fd5b50565b6000813590506111af81611189565b92915050565b6000602082840312156111cb576111ca61114d565b5b60006111d9848285016111a0565b91505092915050565b60008115159050919050565b6111f7816111e2565b82525050565b600060208201905061121260008301846111ee565b92915050565b611221816110d6565b82525050565b600060208201905061123c6000830184611218565b92915050565b600080fd5b600080fd5b6000601f19601f8301169050919050565b7f4e487b7100000000000000000000000000000000000000000000000000000000600052604160045260246000fd5b6112958261124c565b810181811067ffffffffffffffff821117156112b4576112b361125d565b5b80604052505050565b60006112c7611143565b90506112d3828261128c565b919050565b600067ffffffffffffffff8211156112f3576112f261125d565b5b6112fc8261124c565b9050602081019050919050565b82818337600083830152505050565b600061132b611326846112d8565b6112bd565b90508281526020810184848401111561134757611346611247565b5b611352848285611309565b509392505050565b600082601f83011261136f5761136e611242565b5b813561137f848260208601611318565b91505092915050565b60006020828403121561139e5761139d61114d565b5b600082013567ffffffffffffffff8111156113bc576113bb611152565b5b6113c88482850161135a565b91505092915050565b6113da816110d6565b81146113e557600080fd5b50565b6000813590506113f7816113d1565b92915050565b6000602082840312156114135761141261114d565b5b6000611421848285016113e8565b91505092915050565b600081519050919050565b60005b83811015611453578082015181840152602081019050611438565b60008484015250505050565b600061146a8261142a565b6114748185611059565b9350611484818560208601611435565b61148d8161124c565b840191505092915050565b600060208201905081810360008301526114b2818461145f565b905092915050565b60006114c582611157565b9050919050565b6114d5816114ba565b82525050565b60006020820190506114f060008301846114cc565b92915050565b600081519050919050565b600082825260208201905092915050565b6000819050602082019050919050565b61152b81611177565b82525050565b600061153d8383611522565b60208301905092915050565b6000602082019050919050565b6000611561826114f6565b61156b8185611501565b935061157683611512565b8060005b838110156115a757815161158e8882611531565b975061159983611549565b92505060018101905061157a565b5085935050505092915050565b600060208201905081810360008301526115ce8184611556565b905092915050565b7f4e6f20636f6e747269627574696f6e20746f207570646174652e000000000000600082015250565b600061160c601a83611059565b9150611617826115d6565b602082019050919050565b6000602082019050818103600083015261163b816115ff565b9050919050565b600061164d826110d6565b9150611658836110d6565b92508282039050818111156116705761166f6110e0565b5b92915050565b7f4f6e6c79206f776e65722063616e2077697468647261772e0000000000000000600082015250565b60006116ac601883611059565b91506116b782611676565b602082019050919050565b600060208201905081810360008301526116db8161169f565b9050919050565b7f476f616c206e6f7420726561636865642e000000000000000000000000000000600082015250565b6000611718601183611059565b9150611723826116e2565b602082019050919050565b600060208201905081810360008301526117478161170b565b9050919050565b7f4f6e6c79206f776e65722063616e207570646174652063616d706169676e207460008201527f69746c652e000000000000000000000000000000000000000000000000000000602082015250565b60006117aa602583611059565b91506117b58261174e565b604082019050919050565b600060208201905081810360008301526117d98161179d565b9050919050565b7f4e487b7100000000000000000000000000000000000000000000000000000000600052602260045260246000fd5b6000600282049050600182168061182757607f821691505b60208210810361183a576118396117e0565b5b50919050565b60008190508160005260206000209050919050565b60006020601f8301049050919050565b600082821b905092915050565b6000600883026118a27fffffffffffffffffffffffffffffffffffffffffffffffffffffffffffffffff82611865565b6118ac8683611865565b95508019841693508086168417925050509392505050565b6000819050919050565b60006118e96118e46118df846110d6565b6118c4565b6110d6565b9050919050565b6000819050919050565b611903836118ce565b61191761190f826118f0565b848454611872565b825550505050565b600090565b61192c61191f565b6119378184846118fa565b505050565b5b8181101561195b57611950600082611924565b60018101905061193d565b5050565b601f8211156119a05761197181611840565b61197a84611855565b81016020851015611989578190505b61199d61199585611855565b83018261193c565b50505b505050565b600082821c905092915050565b60006119c3600019846008026119a5565b1980831691505092915050565b60006119dc83836119b2565b9150826002028217905092915050565b6119f58261142a565b67ffffffffffffffff811115611a0e57611a0d61125d565b5b611a18825461180f565b611a2382828561195f565b600060209050601f831160018114611a565760008415611a44578287015190505b611a4e85826119d0565b865550611ab6565b601f198416611a6486611840565b60005b82811015611a8c57848901518255600182019150602085019450602081019050611a67565b86831015611aa95784890151611aa5601f8916826119b2565b8355505b6001600288020188555050505b505050505050565b7f43726f776466756e64696e67206973207374696c6c206f70656e2e0000000000600082015250565b6000611af4601b83611059565b9150611aff82611abe565b602082019050919050565b60006020820190508181036000830152611b2381611ae7565b9050919050565b7f476f616c20726561636865642c2063616e6e6f7420726566756e642e00000000600082015250565b6000611b60601c83611059565b9150611b6b82611b2a565b602082019050919050565b60006020820190508181036000830152611b8f81611b53565b9050919050565b7f4f6e6c79206f776e65722063616e207570646174652063616d706169676e206560008201527f6e642074696d652e000000000000000000000000000000000000000000000000602082015250565b6000611bf2602883611059565b9150611bfd82611b96565b604082019050919050565b60006020820190508181036000830152611c2181611be5565b9050919050565b7f456e642074696d65206d75737420626520696e20746865206675747572652e00600082015250565b6000611c5e601f83611059565b9150611c6982611c28565b602082019050919050565b60006020820190508181036000830152611c8d81611c51565b9050919050565b6000611c9f826110d6565b9150611caa836110d6565b9250828202611cb8816110d6565b91508282048414831517611ccf57611cce6110e0565b5b5092915050565b7f4e487b7100000000000000000000000000000000000000000000000000000000600052601260045260246000fd5b6000611d10826110d6565b9150611d1b836110d6565b925082611d2b57611d2a611cd6565b5b828204905092915050565b7f4f6e6c79206f776e65722063616e20636c6f73652063616d706169676e2e0000600082015250565b6000611d6c601e83611059565b9150611d7782611d36565b602082019050919050565b60006020820190508181036000830152611d9b81611d5f565b9050919050565b7f4f6e6c79206f776e65722063616e2075706461746520676f616c20616d6f756e60008201527f742e000000000000000000000000000000000000000000000000000000000000602082015250565b6000611dfe602283611059565b9150611e0982611da2565b604082019050919050565b60006020820190508181036000830152611e2d81611df1565b9050919050565b7f476f616c20616d6f756e74206d7573742062652067726561746572207468616e60008201527f20302e0000000000000000000000000000000000000000000000000000000000602082015250565b6000611e90602383611059565b9150611e9b82611e34565b604082019050919050565b60006020820190508181036000830152611ebf81611e83565b905091905056fea2646970667358221220ce16abf5e4d7c4bdd6171993d0f919eaaf45d85fce18f5bb02b92a66a7d6e12b64736f6c63430008120033",
  "linkReferences": {},
  "deployedLinkReferences": {}
}